{
  "_format": "hh-sol-artifact-1",
  "contractName": "CompatibilityFallbackHandler",
  "sourceName": "contracts/handler/CompatibilityFallbackHandler.sol",
  "abi": [
    {
      "inputs": [],
      "name": "NAME",
      "outputs": [
        {
          "internalType": "string",
          "name": "",
          "type": "string"
        }
      ],
      "stateMutability": "view",
      "type": "function"
    },
    {
      "inputs": [],
      "name": "VERSION",
      "outputs": [
        {
          "internalType": "string",
          "name": "",
          "type": "string"
        }
      ],
      "stateMutability": "view",
      "type": "function"
    },
    {
      "inputs": [
        {
          "internalType": "bytes",
          "name": "message",
          "type": "bytes"
        }
      ],
      "name": "getMessageHash",
      "outputs": [
        {
          "internalType": "bytes32",
          "name": "",
          "type": "bytes32"
        }
      ],
      "stateMutability": "view",
      "type": "function"
    },
    {
      "inputs": [
        {
          "internalType": "contract GnosisSafe",
          "name": "safe",
          "type": "address"
        },
        {
          "internalType": "bytes",
          "name": "message",
          "type": "bytes"
        }
      ],
      "name": "getMessageHashForSafe",
      "outputs": [
        {
          "internalType": "bytes32",
          "name": "",
          "type": "bytes32"
        }
      ],
      "stateMutability": "view",
      "type": "function"
    },
    {
      "inputs": [],
      "name": "getModules",
      "outputs": [
        {
          "internalType": "address[]",
          "name": "",
          "type": "address[]"
        }
      ],
      "stateMutability": "view",
      "type": "function"
    },
    {
      "inputs": [
        {
          "internalType": "bytes32",
          "name": "_dataHash",
          "type": "bytes32"
        },
        {
          "internalType": "bytes",
          "name": "_signature",
          "type": "bytes"
        }
      ],
      "name": "isValidSignature",
      "outputs": [
        {
          "internalType": "bytes4",
          "name": "",
          "type": "bytes4"
        }
      ],
      "stateMutability": "view",
      "type": "function"
    },
    {
      "inputs": [
        {
          "internalType": "bytes",
          "name": "_data",
          "type": "bytes"
        },
        {
          "internalType": "bytes",
          "name": "_signature",
          "type": "bytes"
        }
      ],
      "name": "isValidSignature",
      "outputs": [
        {
          "internalType": "bytes4",
          "name": "",
          "type": "bytes4"
        }
      ],
      "stateMutability": "view",
      "type": "function"
    },
    {
      "inputs": [
        {
          "internalType": "address",
          "name": "",
          "type": "address"
        },
        {
          "internalType": "address",
          "name": "",
          "type": "address"
        },
        {
          "internalType": "uint256[]",
          "name": "",
          "type": "uint256[]"
        },
        {
          "internalType": "uint256[]",
          "name": "",
          "type": "uint256[]"
        },
        {
          "internalType": "bytes",
          "name": "",
          "type": "bytes"
        }
      ],
      "name": "onERC1155BatchReceived",
      "outputs": [
        {
          "internalType": "bytes4",
          "name": "",
          "type": "bytes4"
        }
      ],
      "stateMutability": "pure",
      "type": "function"
    },
    {
      "inputs": [
        {
          "internalType": "address",
          "name": "",
          "type": "address"
        },
        {
          "internalType": "address",
          "name": "",
          "type": "address"
        },
        {
          "internalType": "uint256",
          "name": "",
          "type": "uint256"
        },
        {
          "internalType": "uint256",
          "name": "",
          "type": "uint256"
        },
        {
          "internalType": "bytes",
          "name": "",
          "type": "bytes"
        }
      ],
      "name": "onERC1155Received",
      "outputs": [
        {
          "internalType": "bytes4",
          "name": "",
          "type": "bytes4"
        }
      ],
      "stateMutability": "pure",
      "type": "function"
    },
    {
      "inputs": [
        {
          "internalType": "address",
          "name": "",
          "type": "address"
        },
        {
          "internalType": "address",
          "name": "",
          "type": "address"
        },
        {
          "internalType": "uint256",
          "name": "",
          "type": "uint256"
        },
        {
          "internalType": "bytes",
          "name": "",
          "type": "bytes"
        }
      ],
      "name": "onERC721Received",
      "outputs": [
        {
          "internalType": "bytes4",
          "name": "",
          "type": "bytes4"
        }
      ],
      "stateMutability": "pure",
      "type": "function"
    },
    {
      "inputs": [
        {
          "internalType": "address",
          "name": "targetContract",
          "type": "address"
        },
        {
          "internalType": "bytes",
          "name": "calldataPayload",
          "type": "bytes"
        }
      ],
      "name": "simulate",
      "outputs": [
        {
          "internalType": "bytes",
          "name": "response",
          "type": "bytes"
        }
      ],
      "stateMutability": "nonpayable",
      "type": "function"
    },
    {
      "inputs": [
        {
          "internalType": "bytes4",
          "name": "interfaceId",
          "type": "bytes4"
        }
      ],
      "name": "supportsInterface",
      "outputs": [
        {
          "internalType": "bool",
          "name": "",
          "type": "bool"
        }
      ],
      "stateMutability": "view",
      "type": "function"
    },
    {
      "inputs": [
        {
          "internalType": "address",
          "name": "",
          "type": "address"
        },
        {
          "internalType": "address",
          "name": "",
          "type": "address"
        },
        {
          "internalType": "address",
          "name": "",
          "type": "address"
        },
        {
          "internalType": "uint256",
          "name": "",
          "type": "uint256"
        },
        {
          "internalType": "bytes",
          "name": "",
          "type": "bytes"
        },
        {
          "internalType": "bytes",
          "name": "",
          "type": "bytes"
        }
      ],
      "name": "tokensReceived",
      "outputs": [],
      "stateMutability": "pure",
      "type": "function"
    }
  ],
  "bytecode": "0x608060405234801561001057600080fd5b50611980806100206000396000f3fe608060405234801561001057600080fd5b50600436106100ce5760003560e01c80636ac247841161008c578063bc197c8111610066578063bc197c811461024b578063bd61951d1461027b578063f23a6e61146102ab578063ffa1ad74146102db576100ce565b80636ac24784146101df578063a3f4df7e1461020f578063b2494df31461022d576100ce565b806223de29146100d357806301ffc9a7146100ef5780630a1028c41461011f578063150b7a021461014f5780631626ba7e1461017f57806320c13b0b146101af575b600080fd5b6100ed60048036038101906100e89190610c7a565b6102f9565b005b61010960048036038101906101049190611090565b610303565b6040516101169190611496565b60405180910390f35b6101396004803603810190610134919061116b565b61043d565b60405161014691906114b1565b60405180910390f35b61016960048036038101906101649190610e25565b610450565b604051610176919061153e565b60405180910390f35b61019960048036038101906101949190611030565b610465565b6040516101a6919061153e565b60405180910390f35b6101c960048036038101906101c491906110ea565b610585565b6040516101d6919061153e565b60405180910390f35b6101f960048036038101906101f491906111b4565b610740565b60405161020691906114b1565b60405180910390f35b610217610853565b60405161022491906115b4565b60405180910390f35b61023561088c565b6040516102429190611474565b60405180910390f35b61026560048036038101906102609190610d49565b610932565b604051610272919061153e565b60405180910390f35b61029560048036038101906102909190610f47565b61094a565b6040516102a29190611559565b60405180910390f35b6102c560048036038101906102c09190610ead565b6109b4565b6040516102d2919061153e565b60405180910390f35b6102e36109ca565b6040516102f091906115b4565b60405180910390f35b5050505050505050565b60007f4e2312e0000000000000000000000000000000000000000000000000000000007bffffffffffffffffffffffffffffffffffffffffffffffffffffffff1916827bffffffffffffffffffffffffffffffffffffffffffffffffffffffff191614806103ce57507f150b7a02000000000000000000000000000000000000000000000000000000007bffffffffffffffffffffffffffffffffffffffffffffffffffffffff1916827bffffffffffffffffffffffffffffffffffffffffffffffffffffffff1916145b8061043657507f01ffc9a7000000000000000000000000000000000000000000000000000000007bffffffffffffffffffffffffffffffffffffffffffffffffffffffff1916827bffffffffffffffffffffffffffffffffffffffffffffffffffffffff1916145b9050919050565b60006104493383610740565b9050919050565b600063150b7a0260e01b905095945050505050565b60008033905060008173ffffffffffffffffffffffffffffffffffffffff166320c13b0b8760405160200161049a91906114b1565b60405160208183030381529060405287876040518463ffffffff1660e01b81526004016104c99392919061157b565b60206040518083038186803b1580156104e157600080fd5b505afa1580156104f5573d6000803e3d6000fd5b505050506040513d601f19601f8201168201806040525081019061051991906110bd565b90506320c13b0b60e01b7bffffffffffffffffffffffffffffffffffffffffffffffffffffffff1916817bffffffffffffffffffffffffffffffffffffffffffffffffffffffff19161461057157600060e01b61057a565b631626ba7e60e01b5b925050509392505050565b60008033905060006105db8288888080601f016020809104026020016040519081016040528093929190818152602001838380828437600081840152601f19601f82011690508083019250505050505050610740565b905060008585905014156106ba5760008273ffffffffffffffffffffffffffffffffffffffff16635ae6bd37836040518263ffffffff1660e01b815260040161062491906114b1565b60206040518083038186803b15801561063c57600080fd5b505afa158015610650573d6000803e3d6000fd5b505050506040513d601f19601f820116820180604052508101906106749190611210565b14156106b5576040517f08c379a00000000000000000000000000000000000000000000000000000000081526004016106ac906115d6565b60405180910390fd5b61072c565b8173ffffffffffffffffffffffffffffffffffffffff1663934f3a1182898989896040518663ffffffff1660e01b81526004016106fb9594939291906114f5565b60006040518083038186803b15801561071357600080fd5b505afa158015610727573d6000803e3d6000fd5b505050505b6320c13b0b60e01b92505050949350505050565b6000807f60b3cbf8b4a223d68d641b3b6ddf9a298e7f33710cf3d3a9d1146b5a6150fbca60001b83805190602001206040516020016107809291906114cc565b604051602081830303815290604052805190602001209050601960f81b600160f81b8573ffffffffffffffffffffffffffffffffffffffff1663f698da256040518163ffffffff1660e01b815260040160206040518083038186803b1580156107e857600080fd5b505afa1580156107fc573d6000803e3d6000fd5b505050506040513d601f19601f820116820180604052508101906108209190611003565b8360405160200161083494939291906113fd565b6040516020818303038152906040528051906020012091505092915050565b6040518060400160405280601881526020017f44656661756c742043616c6c6261636b2048616e646c6572000000000000000081525081565b6060600033905060008173ffffffffffffffffffffffffffffffffffffffff1663cc2f84526001600a6040518363ffffffff1660e01b81526004016108d292919061144b565b60006040518083038186803b1580156108ea57600080fd5b505afa1580156108fe573d6000803e3d6000fd5b505050506040513d6000823e3d601f19601f820116820180604052508101906109279190610fa7565b509050809250505090565b600063bc197c8160e01b905098975050505050505050565b60606040517fb4faba09000000000000000000000000000000000000000000000000000000008152600436036004808301376020600036836000335af15060203d036040519250808301604052806020843e6000516109ab57825160208401fd5b50509392505050565b600063f23a6e6160e01b90509695505050505050565b6040518060400160405280600581526020017f312e302e3000000000000000000000000000000000000000000000000000000081525081565b6000610a16610a118461161b565b6115f6565b90508083825260208201905082856020860282011115610a3957610a38611889565b5b60005b85811015610a695781610a4f8882610aca565b845260208401935060208301925050600181019050610a3c565b5050509392505050565b6000610a86610a8184611647565b6115f6565b905082815260208101848484011115610aa257610aa161188e565b5b610aad8482856117c9565b509392505050565b600081359050610ac4816118d7565b92915050565b600081519050610ad9816118d7565b92915050565b600082601f830112610af457610af3611884565b5b8151610b04848260208601610a03565b91505092915050565b60008083601f840112610b2357610b22611884565b5b8235905067ffffffffffffffff811115610b4057610b3f61187f565b5b602083019150836020820283011115610b5c57610b5b611889565b5b9250929050565b600081359050610b72816118ee565b92915050565b600081519050610b87816118ee565b92915050565b600081359050610b9c81611905565b92915050565b600081519050610bb181611905565b92915050565b60008083601f840112610bcd57610bcc611884565b5b8235905067ffffffffffffffff811115610bea57610be961187f565b5b602083019150836001820283011115610c0657610c05611889565b5b9250929050565b600082601f830112610c2257610c21611884565b5b8135610c32848260208601610a73565b91505092915050565b600081359050610c4a8161191c565b92915050565b600081359050610c5f81611933565b92915050565b600081519050610c7481611933565b92915050565b60008060008060008060008060c0898b031215610c9a57610c99611898565b5b6000610ca88b828c01610ab5565b9850506020610cb98b828c01610ab5565b9750506040610cca8b828c01610ab5565b9650506060610cdb8b828c01610c50565b955050608089013567ffffffffffffffff811115610cfc57610cfb611893565b5b610d088b828c01610bb7565b945094505060a089013567ffffffffffffffff811115610d2b57610d2a611893565b5b610d378b828c01610bb7565b92509250509295985092959890939650565b60008060008060008060008060a0898b031215610d6957610d68611898565b5b6000610d778b828c01610ab5565b9850506020610d888b828c01610ab5565b975050604089013567ffffffffffffffff811115610da957610da8611893565b5b610db58b828c01610b0d565b9650965050606089013567ffffffffffffffff811115610dd857610dd7611893565b5b610de48b828c01610b0d565b9450945050608089013567ffffffffffffffff811115610e0757610e06611893565b5b610e138b828c01610bb7565b92509250509295985092959890939650565b600080600080600060808688031215610e4157610e40611898565b5b6000610e4f88828901610ab5565b9550506020610e6088828901610ab5565b9450506040610e7188828901610c50565b935050606086013567ffffffffffffffff811115610e9257610e91611893565b5b610e9e88828901610bb7565b92509250509295509295909350565b60008060008060008060a08789031215610eca57610ec9611898565b5b6000610ed889828a01610ab5565b9650506020610ee989828a01610ab5565b9550506040610efa89828a01610c50565b9450506060610f0b89828a01610c50565b935050608087013567ffffffffffffffff811115610f2c57610f2b611893565b5b610f3889828a01610bb7565b92509250509295509295509295565b600080600060408486031215610f6057610f5f611898565b5b6000610f6e86828701610ab5565b935050602084013567ffffffffffffffff811115610f8f57610f8e611893565b5b610f9b86828701610bb7565b92509250509250925092565b60008060408385031215610fbe57610fbd611898565b5b600083015167ffffffffffffffff811115610fdc57610fdb611893565b5b610fe885828601610adf565b9250506020610ff985828601610aca565b9150509250929050565b60006020828403121561101957611018611898565b5b600061102784828501610b78565b91505092915050565b60008060006040848603121561104957611048611898565b5b600061105786828701610b63565b935050602084013567ffffffffffffffff81111561107857611077611893565b5b61108486828701610bb7565b92509250509250925092565b6000602082840312156110a6576110a5611898565b5b60006110b484828501610b8d565b91505092915050565b6000602082840312156110d3576110d2611898565b5b60006110e184828501610ba2565b91505092915050565b6000806000806040858703121561110457611103611898565b5b600085013567ffffffffffffffff81111561112257611121611893565b5b61112e87828801610bb7565b9450945050602085013567ffffffffffffffff81111561115157611150611893565b5b61115d87828801610bb7565b925092505092959194509250565b60006020828403121561118157611180611898565b5b600082013567ffffffffffffffff81111561119f5761119e611893565b5b6111ab84828501610c0d565b91505092915050565b600080604083850312156111cb576111ca611898565b5b60006111d985828601610c3b565b925050602083013567ffffffffffffffff8111156111fa576111f9611893565b5b61120685828601610c0d565b9150509250929050565b60006020828403121561122657611225611898565b5b600061123484828501610c65565b91505092915050565b60006112498383611255565b60208301905092915050565b61125e816116e9565b82525050565b61126d816116e9565b82525050565b600061127e82611688565b61128881856116b6565b935061129383611678565b8060005b838110156112c45781516112ab888261123d565b97506112b6836116a9565b925050600181019050611297565b5085935050505092915050565b6112da8161170d565b82525050565b6112f16112ec82611719565b61183c565b82525050565b61130081611745565b82525050565b61131761131282611745565b611846565b82525050565b6113268161174f565b82525050565b600061133883856116c7565b93506113458385846117c9565b61134e8361189d565b840190509392505050565b600061136482611693565b61136e81856116c7565b935061137e8185602086016117d8565b6113878161189d565b840191505092915050565b61139b816117b7565b82525050565b60006113ac8261169e565b6113b681856116d8565b93506113c68185602086016117d8565b6113cf8161189d565b840191505092915050565b60006113e76011836116d8565b91506113f2826118ae565b602082019050919050565b600061140982876112e0565b60018201915061141982866112e0565b6001820191506114298285611306565b6020820191506114398284611306565b60208201915081905095945050505050565b60006040820190506114606000830185611264565b61146d6020830184611392565b9392505050565b6000602082019050818103600083015261148e8184611273565b905092915050565b60006020820190506114ab60008301846112d1565b92915050565b60006020820190506114c660008301846112f7565b92915050565b60006040820190506114e160008301856112f7565b6114ee60208301846112f7565b9392505050565b600060608201905061150a60008301886112f7565b818103602083015261151d81868861132c565b9050818103604083015261153281848661132c565b90509695505050505050565b6000602082019050611553600083018461131d565b92915050565b600060208201905081810360008301526115738184611359565b905092915050565b600060408201905081810360008301526115958186611359565b905081810360208301526115aa81848661132c565b9050949350505050565b600060208201905081810360008301526115ce81846113a1565b905092915050565b600060208201905081810360008301526115ef816113da565b9050919050565b6000611600611611565b905061160c828261180b565b919050565b6000604051905090565b600067ffffffffffffffff82111561163657611635611850565b5b602082029050602081019050919050565b600067ffffffffffffffff82111561166257611661611850565b5b61166b8261189d565b9050602081019050919050565b6000819050602082019050919050565b600081519050919050565b600081519050919050565b600081519050919050565b6000602082019050919050565b600082825260208201905092915050565b600082825260208201905092915050565b600082825260208201905092915050565b60006116f48261178d565b9050919050565b60006117068261178d565b9050919050565b60008115159050919050565b60007fff0000000000000000000000000000000000000000000000000000000000000082169050919050565b6000819050919050565b60007fffffffff0000000000000000000000000000000000000000000000000000000082169050919050565b6000611786826116fb565b9050919050565b600073ffffffffffffffffffffffffffffffffffffffff82169050919050565b6000819050919050565b60006117c2826117ad565b9050919050565b82818337600083830152505050565b60005b838110156117f65780820151818401526020810190506117db565b83811115611805576000848401525b50505050565b6118148261189d565b810181811067ffffffffffffffff8211171561183357611832611850565b5b80604052505050565b6000819050919050565b6000819050919050565b7f4e487b7100000000000000000000000000000000000000000000000000000000600052604160045260246000fd5b600080fd5b600080fd5b600080fd5b600080fd5b600080fd5b600080fd5b6000601f19601f8301169050919050565b7f48617368206e6f7420617070726f766564000000000000000000000000000000600082015250565b6118e0816116e9565b81146118eb57600080fd5b50565b6118f781611745565b811461190257600080fd5b50565b61190e8161174f565b811461191957600080fd5b50565b6119258161177b565b811461193057600080fd5b50565b61193c816117ad565b811461194757600080fd5b5056fea2646970667358221220f11c0273d95ce4663e41412518eec3f8755d7d903288e718bf729ed810c013e464736f6c63430008070033",
  "linkReferences": {},
  "deployedLinkReferences": {}
}