{
  "_format": "hh-sol-artifact-1",
  "contractName": "DefaultCallbackHandler",
  "sourceName": "contracts/handler/DefaultCallbackHandler.sol",
  "abi": [
    {
      "inputs": [],
      "name": "NAME",
      "outputs": [
        {
          "internalType": "string",
          "name": "",
          "type": "string"
        }
      ],
      "stateMutability": "view",
      "type": "function"
    },
    {
      "inputs": [],
      "name": "VERSION",
      "outputs": [
        {
          "internalType": "string",
          "name": "",
          "type": "string"
        }
      ],
      "stateMutability": "view",
      "type": "function"
    },
    {
      "inputs": [
        {
          "internalType": "address",
          "name": "",
          "type": "address"
        },
        {
          "internalType": "address",
          "name": "",
          "type": "address"
        },
        {
          "internalType": "uint256[]",
          "name": "",
          "type": "uint256[]"
        },
        {
          "internalType": "uint256[]",
          "name": "",
          "type": "uint256[]"
        },
        {
          "internalType": "bytes",
          "name": "",
          "type": "bytes"
        }
      ],
      "name": "onERC1155BatchReceived",
      "outputs": [
        {
          "internalType": "bytes4",
          "name": "",
          "type": "bytes4"
        }
      ],
      "stateMutability": "pure",
      "type": "function"
    },
    {
      "inputs": [
        {
          "internalType": "address",
          "name": "",
          "type": "address"
        },
        {
          "internalType": "address",
          "name": "",
          "type": "address"
        },
        {
          "internalType": "uint256",
          "name": "",
          "type": "uint256"
        },
        {
          "internalType": "uint256",
          "name": "",
          "type": "uint256"
        },
        {
          "internalType": "bytes",
          "name": "",
          "type": "bytes"
        }
      ],
      "name": "onERC1155Received",
      "outputs": [
        {
          "internalType": "bytes4",
          "name": "",
          "type": "bytes4"
        }
      ],
      "stateMutability": "pure",
      "type": "function"
    },
    {
      "inputs": [
        {
          "internalType": "address",
          "name": "",
          "type": "address"
        },
        {
          "internalType": "address",
          "name": "",
          "type": "address"
        },
        {
          "internalType": "uint256",
          "name": "",
          "type": "uint256"
        },
        {
          "internalType": "bytes",
          "name": "",
          "type": "bytes"
        }
      ],
      "name": "onERC721Received",
      "outputs": [
        {
          "internalType": "bytes4",
          "name": "",
          "type": "bytes4"
        }
      ],
      "stateMutability": "pure",
      "type": "function"
    },
    {
      "inputs": [
        {
          "internalType": "bytes4",
          "name": "interfaceId",
          "type": "bytes4"
        }
      ],
      "name": "supportsInterface",
      "outputs": [
        {
          "internalType": "bool",
          "name": "",
          "type": "bool"
        }
      ],
      "stateMutability": "view",
      "type": "function"
    },
    {
      "inputs": [
        {
          "internalType": "address",
          "name": "",
          "type": "address"
        },
        {
          "internalType": "address",
          "name": "",
          "type": "address"
        },
        {
          "internalType": "address",
          "name": "",
          "type": "address"
        },
        {
          "internalType": "uint256",
          "name": "",
          "type": "uint256"
        },
        {
          "internalType": "bytes",
          "name": "",
          "type": "bytes"
        },
        {
          "internalType": "bytes",
          "name": "",
          "type": "bytes"
        }
      ],
      "name": "tokensReceived",
      "outputs": [],
      "stateMutability": "pure",
      "type": "function"
    }
  ],
  "bytecode": "0x608060405234801561001057600080fd5b5061098e806100206000396000f3fe608060405234801561001057600080fd5b506004361061007c5760003560e01c8063a3f4df7e1161005b578063a3f4df7e146100fd578063bc197c811461011b578063f23a6e611461014b578063ffa1ad741461017b5761007c565b806223de291461008157806301ffc9a71461009d578063150b7a02146100cd575b600080fd5b61009b6004803603810190610096919061047d565b610199565b005b6100b760048036038101906100b2919061074a565b6101a3565b6040516100c491906107ce565b60405180910390f35b6100e760048036038101906100e29190610628565b6102dd565b6040516100f491906107e9565b60405180910390f35b6101056102f2565b6040516101129190610804565b60405180910390f35b6101356004803603810190610130919061054c565b61032b565b60405161014291906107e9565b60405180910390f35b610165600480360381019061016091906106b0565b610343565b60405161017291906107e9565b60405180910390f35b610183610359565b6040516101909190610804565b60405180910390f35b5050505050505050565b60007f4e2312e0000000000000000000000000000000000000000000000000000000007bffffffffffffffffffffffffffffffffffffffffffffffffffffffff1916827bffffffffffffffffffffffffffffffffffffffffffffffffffffffff1916148061026e57507f150b7a02000000000000000000000000000000000000000000000000000000007bffffffffffffffffffffffffffffffffffffffffffffffffffffffff1916827bffffffffffffffffffffffffffffffffffffffffffffffffffffffff1916145b806102d657507f01ffc9a7000000000000000000000000000000000000000000000000000000007bffffffffffffffffffffffffffffffffffffffffffffffffffffffff1916827bffffffffffffffffffffffffffffffffffffffffffffffffffffffff1916145b9050919050565b600063150b7a0260e01b905095945050505050565b6040518060400160405280601881526020017f44656661756c742043616c6c6261636b2048616e646c6572000000000000000081525081565b600063bc197c8160e01b905098975050505050505050565b600063f23a6e6160e01b90509695505050505050565b6040518060400160405280600581526020017f312e302e3000000000000000000000000000000000000000000000000000000081525081565b6000813590506103a181610913565b92915050565b60008083601f8401126103bd576103bc6108ee565b5b8235905067ffffffffffffffff8111156103da576103d96108e9565b5b6020830191508360208202830111156103f6576103f56108f3565b5b9250929050565b60008135905061040c8161092a565b92915050565b60008083601f840112610428576104276108ee565b5b8235905067ffffffffffffffff811115610445576104446108e9565b5b602083019150836001820283011115610461576104606108f3565b5b9250929050565b60008135905061047781610941565b92915050565b60008060008060008060008060c0898b03121561049d5761049c6108fd565b5b60006104ab8b828c01610392565b98505060206104bc8b828c01610392565b97505060406104cd8b828c01610392565b96505060606104de8b828c01610468565b955050608089013567ffffffffffffffff8111156104ff576104fe6108f8565b5b61050b8b828c01610412565b945094505060a089013567ffffffffffffffff81111561052e5761052d6108f8565b5b61053a8b828c01610412565b92509250509295985092959890939650565b60008060008060008060008060a0898b03121561056c5761056b6108fd565b5b600061057a8b828c01610392565b985050602061058b8b828c01610392565b975050604089013567ffffffffffffffff8111156105ac576105ab6108f8565b5b6105b88b828c016103a7565b9650965050606089013567ffffffffffffffff8111156105db576105da6108f8565b5b6105e78b828c016103a7565b9450945050608089013567ffffffffffffffff81111561060a576106096108f8565b5b6106168b828c01610412565b92509250509295985092959890939650565b600080600080600060808688031215610644576106436108fd565b5b600061065288828901610392565b955050602061066388828901610392565b945050604061067488828901610468565b935050606086013567ffffffffffffffff811115610695576106946108f8565b5b6106a188828901610412565b92509250509295509295909350565b60008060008060008060a087890312156106cd576106cc6108fd565b5b60006106db89828a01610392565b96505060206106ec89828a01610392565b95505060406106fd89828a01610468565b945050606061070e89828a01610468565b935050608087013567ffffffffffffffff81111561072f5761072e6108f8565b5b61073b89828a01610412565b92509250509295509295509295565b6000602082840312156107605761075f6108fd565b5b600061076e848285016103fd565b91505092915050565b61078081610854565b82525050565b61078f81610860565b82525050565b60006107a082610826565b6107aa8185610831565b93506107ba8185602086016108b6565b6107c381610902565b840191505092915050565b60006020820190506107e36000830184610777565b92915050565b60006020820190506107fe6000830184610786565b92915050565b6000602082019050818103600083015261081e8184610795565b905092915050565b600081519050919050565b600082825260208201905092915050565b600061084d8261088c565b9050919050565b60008115159050919050565b60007fffffffff0000000000000000000000000000000000000000000000000000000082169050919050565b600073ffffffffffffffffffffffffffffffffffffffff82169050919050565b6000819050919050565b60005b838110156108d45780820151818401526020810190506108b9565b838111156108e3576000848401525b50505050565b600080fd5b600080fd5b600080fd5b600080fd5b600080fd5b6000601f19601f8301169050919050565b61091c81610842565b811461092757600080fd5b50565b61093381610860565b811461093e57600080fd5b50565b61094a816108ac565b811461095557600080fd5b5056fea2646970667358221220b397878b9e24ff5162ed3d1b8f8f2d69b4de4108d1fbe5d4796cf1148f84594e64736f6c63430008070033",
  "linkReferences": {},
  "deployedLinkReferences": {}
}