{
  "_format": "hh-sol-artifact-1",
  "contractName": "SimulateTxAccessor",
  "sourceName": "contracts/accessors/SimulateTxAccessor.sol",
  "abi": [
    {
      "inputs": [],
      "stateMutability": "nonpayable",
      "type": "constructor"
    },
    {
      "inputs": [
        {
          "internalType": "address",
          "name": "to",
          "type": "address"
        },
        {
          "internalType": "uint256",
          "name": "value",
          "type": "uint256"
        },
        {
          "internalType": "bytes",
          "name": "data",
          "type": "bytes"
        },
        {
          "internalType": "enum Enum.Operation",
          "name": "operation",
          "type": "uint8"
        }
      ],
      "name": "simulate",
      "outputs": [
        {
          "internalType": "uint256",
          "name": "estimate",
          "type": "uint256"
        },
        {
          "internalType": "bool",
          "name": "success",
          "type": "bool"
        },
        {
          "internalType": "bytes",
          "name": "returnData",
          "type": "bytes"
        }
      ],
      "stateMutability": "nonpayable",
      "type": "function"
    }
  ],
  "bytecode": "0x60a060405234801561001057600080fd5b503073ffffffffffffffffffffffffffffffffffffffff1660808173ffffffffffffffffffffffffffffffffffffffff1660601b8152505060805160601c6105f96100656000396000606901526105f96000f3fe608060405234801561001057600080fd5b506004361061002b5760003560e01c80631c5fb21114610030575b600080fd5b61004a60048036038101906100459190610272565b610062565b60405161005993929190610394565b60405180910390f35b60008060607f000000000000000000000000000000000000000000000000000000000000000073ffffffffffffffffffffffffffffffffffffffff163073ffffffffffffffffffffffffffffffffffffffff1614156100f6576040517f08c379a00000000000000000000000000000000000000000000000000000000081526004016100ed90610374565b60405180910390fd5b60005a905061014c898989898080601f016020809104026020016040519081016040528093929190818152602001838380828437600081840152601f19601f82011690508083019250505050505050885a610183565b92505a8161015a91906103ff565b935060405160203d0181016040523d81523d6000602083013e8092505050955095509592505050565b6000600180811115610198576101976104dd565b5b8360018111156101ab576101aa6104dd565b5b14156101c4576000808551602087018986f490506101d4565b600080855160208701888a87f190505b95945050505050565b6000813590506101ec81610585565b92915050565b60008083601f84011261020857610207610511565b5b8235905067ffffffffffffffff8111156102255761022461050c565b5b60208301915083600182028301111561024157610240610516565b5b9250929050565b6000813590506102578161059c565b92915050565b60008135905061026c816105ac565b92915050565b60008060008060006080868803121561028e5761028d610520565b5b600061029c888289016101dd565b95505060206102ad8882890161025d565b945050604086013567ffffffffffffffff8111156102ce576102cd61051b565b5b6102da888289016101f2565b935093505060606102ed88828901610248565b9150509295509295909350565b61030381610445565b82525050565b6000610314826103d2565b61031e81856103dd565b935061032e81856020860161047b565b61033781610525565b840191505092915050565b600061034f6039836103ee565b915061035a82610536565b604082019050919050565b61036e81610471565b82525050565b6000602082019050818103600083015261038d81610342565b9050919050565b60006060820190506103a96000830186610365565b6103b660208301856102fa565b81810360408301526103c88184610309565b9050949350505050565b600081519050919050565b600082825260208201905092915050565b600082825260208201905092915050565b600061040a82610471565b915061041583610471565b925082821015610428576104276104ae565b5b828203905092915050565b600061043e82610451565b9050919050565b60008115159050919050565b600073ffffffffffffffffffffffffffffffffffffffff82169050919050565b6000819050919050565b60005b8381101561049957808201518184015260208101905061047e565b838111156104a8576000848401525b50505050565b7f4e487b7100000000000000000000000000000000000000000000000000000000600052601160045260246000fd5b7f4e487b7100000000000000000000000000000000000000000000000000000000600052602160045260246000fd5b600080fd5b600080fd5b600080fd5b600080fd5b600080fd5b6000601f19601f8301169050919050565b7f53696d756c61746554784163636573736f722073686f756c64206f6e6c79206260008201527f652063616c6c6564207669612064656c656761746563616c6c00000000000000602082015250565b61058e81610433565b811461059957600080fd5b50565b600281106105a957600080fd5b50565b6105b581610471565b81146105c057600080fd5b5056fea2646970667358221220aaa112b81a5cb57883c8201b2e1ca910b5dc185433c960abad1ec1bc02aa3a3364736f6c63430008070033",
  "linkReferences": {},
  "deployedLinkReferences": {}
}