{
  "_format": "hh-sol-artifact-1",
  "contractName": "SignMessageLib",
  "sourceName": "contracts/libraries/SignMessage.sol",
  "abi": [
    {
      "anonymous": false,
      "inputs": [
        {
          "indexed": true,
          "internalType": "bytes32",
          "name": "msgHash",
          "type": "bytes32"
        }
      ],
      "name": "SignMsg",
      "type": "event"
    },
    {
      "inputs": [
        {
          "internalType": "bytes",
          "name": "message",
          "type": "bytes"
        }
      ],
      "name": "getMessageHash",
      "outputs": [
        {
          "internalType": "bytes32",
          "name": "",
          "type": "bytes32"
        }
      ],
      "stateMutability": "view",
      "type": "function"
    },
    {
      "inputs": [
        {
          "internalType": "bytes",
          "name": "_data",
          "type": "bytes"
        }
      ],
      "name": "signMessage",
      "outputs": [],
      "stateMutability": "nonpayable",
      "type": "function"
    }
  ],
  "bytecode": "0x608060405234801561001057600080fd5b5061062d806100206000396000f3fe608060405234801561001057600080fd5b50600436106100365760003560e01c80630a1028c41461003b57806385a5affe1461006b575b600080fd5b6100556004803603810190610050919061038a565b610087565b604051610062919061045e565b60405180910390f35b6100856004803603810190610080919061033d565b610199565b005b6000807f60b3cbf8b4a223d68d641b3b6ddf9a298e7f33710cf3d3a9d1146b5a6150fbca60001b83805190602001206040516020016100c7929190610479565b604051602081830303815290604052805190602001209050601960f81b600160f81b3073ffffffffffffffffffffffffffffffffffffffff1663f698da256040518163ffffffff1660e01b815260040160206040518083038186803b15801561012f57600080fd5b505afa158015610143573d6000803e3d6000fd5b505050506040513d601f19601f820116820180604052508101906101679190610310565b8360405160200161017b9493929190610410565b60405160208183030381529060405280519060200120915050919050565b60006101e883838080601f016020809104026020016040519081016040528093929190818152602001838380828437600081840152601f19601f82011690508083019250505050505050610087565b905060016007600083815260200190815260200160002081905550807fe7f4675038f4f6034dfcbbb24c4dc08e4ebf10eb9d257d3d02c0f38d122ac6e460405160405180910390a2505050565b6000610248610243846104c7565b6104a2565b905082815260208101848484011115610264576102636105c0565b5b61026f84828561052e565b509392505050565b600081519050610286816105e0565b92915050565b60008083601f8401126102a2576102a16105b6565b5b8235905067ffffffffffffffff8111156102bf576102be6105b1565b5b6020830191508360018202830111156102db576102da6105bb565b5b9250929050565b600082601f8301126102f7576102f66105b6565b5b8135610307848260208601610235565b91505092915050565b600060208284031215610326576103256105ca565b5b600061033484828501610277565b91505092915050565b60008060208385031215610354576103536105ca565b5b600083013567ffffffffffffffff811115610372576103716105c5565b5b61037e8582860161028c565b92509250509250929050565b6000602082840312156103a05761039f6105ca565b5b600082013567ffffffffffffffff8111156103be576103bd6105c5565b5b6103ca848285016102e2565b91505092915050565b6103e46103df826104f8565b61056e565b82525050565b6103f381610524565b82525050565b61040a61040582610524565b610578565b82525050565b600061041c82876103d3565b60018201915061042c82866103d3565b60018201915061043c82856103f9565b60208201915061044c82846103f9565b60208201915081905095945050505050565b600060208201905061047360008301846103ea565b92915050565b600060408201905061048e60008301856103ea565b61049b60208301846103ea565b9392505050565b60006104ac6104bd565b90506104b8828261053d565b919050565b6000604051905090565b600067ffffffffffffffff8211156104e2576104e1610582565b5b6104eb826105cf565b9050602081019050919050565b60007fff0000000000000000000000000000000000000000000000000000000000000082169050919050565b6000819050919050565b82818337600083830152505050565b610546826105cf565b810181811067ffffffffffffffff8211171561056557610564610582565b5b80604052505050565b6000819050919050565b6000819050919050565b7f4e487b7100000000000000000000000000000000000000000000000000000000600052604160045260246000fd5b600080fd5b600080fd5b600080fd5b600080fd5b600080fd5b600080fd5b6000601f19601f8301169050919050565b6105e981610524565b81146105f457600080fd5b5056fea2646970667358221220a84382de4f6ae602ab167a46ab8ec70c632bf6cbfade396bf54fd27d5950968c64736f6c63430008070033",
  "linkReferences": {},
  "deployedLinkReferences": {}
}