{
  "_format": "hh-sol-artifact-1",
  "contractName": "ReentrancyTransactionGuard",
  "sourceName": "contracts/examples/guards/ReentrancyTransactionGuard.sol",
  "abi": [
    {
      "stateMutability": "nonpayable",
      "type": "fallback"
    },
    {
      "inputs": [
        {
          "internalType": "bytes32",
          "name": "",
          "type": "bytes32"
        },
        {
          "internalType": "bool",
          "name": "",
          "type": "bool"
        }
      ],
      "name": "checkAfterExecution",
      "outputs": [],
      "stateMutability": "nonpayable",
      "type": "function"
    },
    {
      "inputs": [
        {
          "internalType": "address",
          "name": "",
          "type": "address"
        },
        {
          "internalType": "uint256",
          "name": "",
          "type": "uint256"
        },
        {
          "internalType": "bytes",
          "name": "",
          "type": "bytes"
        },
        {
          "internalType": "enum Enum.Operation",
          "name": "",
          "type": "uint8"
        },
        {
          "internalType": "uint256",
          "name": "",
          "type": "uint256"
        },
        {
          "internalType": "uint256",
          "name": "",
          "type": "uint256"
        },
        {
          "internalType": "uint256",
          "name": "",
          "type": "uint256"
        },
        {
          "internalType": "address",
          "name": "",
          "type": "address"
        },
        {
          "internalType": "address payable",
          "name": "",
          "type": "address"
        },
        {
          "internalType": "bytes",
          "name": "",
          "type": "bytes"
        },
        {
          "internalType": "address",
          "name": "",
          "type": "address"
        }
      ],
      "name": "checkTransaction",
      "outputs": [],
      "stateMutability": "nonpayable",
      "type": "function"
    },
    {
      "inputs": [
        {
          "internalType": "bytes4",
          "name": "interfaceId",
          "type": "bytes4"
        }
      ],
      "name": "supportsInterface",
      "outputs": [
        {
          "internalType": "bool",
          "name": "",
          "type": "bool"
        }
      ],
      "stateMutability": "view",
      "type": "function"
    }
  ],
  "bytecode": "0x608060405234801561001057600080fd5b506107ed806100206000396000f3fe608060405234801561001057600080fd5b50600436106100455760003560e01c806301ffc9a71461004857806375f0bb5214610078578063932713681461009457610046565b5b005b610062600480360381019061005d91906104cf565b6100b0565b60405161006f919061052e565b60405180910390f35b610092600480360381019061008d9190610363565b610182565b005b6100ae60048036038101906100a9919061048f565b61020b565b005b60007fe6d7a83a000000000000000000000000000000000000000000000000000000007bffffffffffffffffffffffffffffffffffffffffffffffffffffffff1916827bffffffffffffffffffffffffffffffffffffffffffffffffffffffff1916148061017b57507f01ffc9a7000000000000000000000000000000000000000000000000000000007bffffffffffffffffffffffffffffffffffffffffffffffffffffffff1916827bffffffffffffffffffffffffffffffffffffffffffffffffffffffff1916145b9050919050565b600061018c610233565b90508060000160009054906101000a900460ff16156101e0576040517f08c379a00000000000000000000000000000000000000000000000000000000081526004016101d790610549565b60405180910390fd5b60018160000160006101000a81548160ff021916908315150217905550505050505050505050505050565b6000610215610233565b60000160006101000a81548160ff0219169083151502179055505050565b6000807f7c1d45961c2d0298f999d2c3d4a7a5e0f688d137f4c32466e3056a97e673b83a90508091505090565b600061027361026e8461058e565b610569565b90508281526020810184848401111561028f5761028e6106d4565b5b61029a848285610660565b509392505050565b6000813590506102b18161071d565b92915050565b6000813590506102c681610734565b92915050565b6000813590506102db8161074b565b92915050565b6000813590506102f081610762565b92915050565b60008135905061030581610779565b92915050565b600082601f8301126103205761031f6106cf565b5b8135610330848260208601610260565b91505092915050565b60008135905061034881610790565b92915050565b60008135905061035d816107a0565b92915050565b60008060008060008060008060008060006101608c8e031215610389576103886106de565b5b60006103978e828f016102a2565b9b505060206103a88e828f0161034e565b9a505060408c013567ffffffffffffffff8111156103c9576103c86106d9565b5b6103d58e828f0161030b565b99505060606103e68e828f01610339565b98505060806103f78e828f0161034e565b97505060a06104088e828f0161034e565b96505060c06104198e828f0161034e565b95505060e061042a8e828f016102a2565b94505061010061043c8e828f016102b7565b9350506101208c013567ffffffffffffffff81111561045e5761045d6106d9565b5b61046a8e828f0161030b565b92505061014061047c8e828f016102a2565b9150509295989b509295989b9093969950565b600080604083850312156104a6576104a56106de565b5b60006104b4858286016102e1565b92505060206104c5858286016102cc565b9150509250929050565b6000602082840312156104e5576104e46106de565b5b60006104f3848285016102f6565b91505092915050565b610505816105f4565b82525050565b60006105186013836105bf565b9150610523826106f4565b602082019050919050565b600060208201905061054360008301846104fc565b92915050565b600060208201905081810360008301526105628161050b565b9050919050565b6000610573610584565b905061057f828261066f565b919050565b6000604051905090565b600067ffffffffffffffff8211156105a9576105a86106a0565b5b6105b2826106e3565b9050602081019050919050565b600082825260208201905092915050565b60006105db82610636565b9050919050565b60006105ed82610636565b9050919050565b60008115159050919050565b6000819050919050565b60007fffffffff0000000000000000000000000000000000000000000000000000000082169050919050565b600073ffffffffffffffffffffffffffffffffffffffff82169050919050565b6000819050919050565b82818337600083830152505050565b610678826106e3565b810181811067ffffffffffffffff82111715610697576106966106a0565b5b80604052505050565b7f4e487b7100000000000000000000000000000000000000000000000000000000600052604160045260246000fd5b600080fd5b600080fd5b600080fd5b600080fd5b6000601f19601f8301169050919050565b7f5265656e7472616e637920646574656374656400000000000000000000000000600082015250565b610726816105d0565b811461073157600080fd5b50565b61073d816105e2565b811461074857600080fd5b50565b610754816105f4565b811461075f57600080fd5b50565b61076b81610600565b811461077657600080fd5b50565b6107828161060a565b811461078d57600080fd5b50565b6002811061079d57600080fd5b50565b6107a981610656565b81146107b457600080fd5b5056fea2646970667358221220cc7f75a45b8801a928486dad18add30827a2644438ee5c46dd9609f404851e3364736f6c63430008070033",
  "linkReferences": {},
  "deployedLinkReferences": {}
}