{
  "_format": "hh-sol-artifact-1",
  "contractName": "GuardManager",
  "sourceName": "contracts/base/GuardManager.sol",
  "abi": [
    {
      "anonymous": false,
      "inputs": [
        {
          "indexed": false,
          "internalType": "address",
          "name": "guard",
          "type": "address"
        }
      ],
      "name": "ChangedGuard",
      "type": "event"
    },
    {
      "inputs": [
        {
          "internalType": "address",
          "name": "guard",
          "type": "address"
        }
      ],
      "name": "setGuard",
      "outputs": [],
      "stateMutability": "nonpayable",
      "type": "function"
    }
  ],
  "bytecode": "0x608060405234801561001057600080fd5b506104db806100206000396000f3fe608060405234801561001057600080fd5b506004361061002b5760003560e01c8063e19a9dd914610030575b600080fd5b61004a60048036038101906100459190610271565b61004c565b005b6100546101d7565b600073ffffffffffffffffffffffffffffffffffffffff168173ffffffffffffffffffffffffffffffffffffffff1614610171578073ffffffffffffffffffffffffffffffffffffffff166301ffc9a77fe6d7a83a000000000000000000000000000000000000000000000000000000006040518263ffffffff1660e01b81526004016100e1919061034a565b60206040518083038186803b1580156100f957600080fd5b505afa15801561010d573d6000803e3d6000fd5b505050506040513d601f19601f82011682018060405250810190610131919061029e565b610170576040517f08c379a000000000000000000000000000000000000000000000000000000000815260040161016790610385565b60405180910390fd5b5b60007f4a204f620c8c5ccdca3fd54d003badd85ba500436a431f0cbda4f558c93c34c860001b90508181557f1151116914515bc0891ff9047a6cb32cf902546f83066499bcf8ba33d2353fa2826040516101cb919061032f565b60405180910390a15050565b3073ffffffffffffffffffffffffffffffffffffffff163373ffffffffffffffffffffffffffffffffffffffff1614610245576040517f08c379a000000000000000000000000000000000000000000000000000000000815260040161023c90610365565b60405180910390fd5b565b60008135905061025681610477565b92915050565b60008151905061026b8161048e565b92915050565b60006020828403121561028757610286610420565b5b600061029584828501610247565b91505092915050565b6000602082840312156102b4576102b3610420565b5b60006102c28482850161025c565b91505092915050565b6102d4816103b6565b82525050565b6102e3816103d4565b82525050565b60006102f66005836103a5565b915061030182610425565b602082019050919050565b60006103196005836103a5565b91506103248261044e565b602082019050919050565b600060208201905061034460008301846102cb565b92915050565b600060208201905061035f60008301846102da565b92915050565b6000602082019050818103600083015261037e816102e9565b9050919050565b6000602082019050818103600083015261039e8161030c565b9050919050565b600082825260208201905092915050565b60006103c182610400565b9050919050565b60008115159050919050565b60007fffffffff0000000000000000000000000000000000000000000000000000000082169050919050565b600073ffffffffffffffffffffffffffffffffffffffff82169050919050565b600080fd5b7f4753303331000000000000000000000000000000000000000000000000000000600082015250565b7f4753333030000000000000000000000000000000000000000000000000000000600082015250565b610480816103b6565b811461048b57600080fd5b50565b610497816103c8565b81146104a257600080fd5b5056fea26469706673582212205978e63caf7787a802da7e5db183ec5d344aa25c8dc1da7031665676cd239a9e64736f6c63430008070033",
  "linkReferences": {},
  "deployedLinkReferences": {}
}