{
  "_format": "hh-sol-artifact-1",
  "contractName": "CreateCall",
  "sourceName": "contracts/libraries/CreateCall.sol",
  "abi": [
    {
      "anonymous": false,
      "inputs": [
        {
          "indexed": false,
          "internalType": "address",
          "name": "newContract",
          "type": "address"
        }
      ],
      "name": "ContractCreation",
      "type": "event"
    },
    {
      "inputs": [
        {
          "internalType": "uint256",
          "name": "value",
          "type": "uint256"
        },
        {
          "internalType": "bytes",
          "name": "deploymentData",
          "type": "bytes"
        }
      ],
      "name": "performCreate",
      "outputs": [
        {
          "internalType": "address",
          "name": "newContract",
          "type": "address"
        }
      ],
      "stateMutability": "nonpayable",
      "type": "function"
    },
    {
      "inputs": [
        {
          "internalType": "uint256",
          "name": "value",
          "type": "uint256"
        },
        {
          "internalType": "bytes",
          "name": "deploymentData",
          "type": "bytes"
        },
        {
          "internalType": "bytes32",
          "name": "salt",
          "type": "bytes32"
        }
      ],
      "name": "performCreate2",
      "outputs": [
        {
          "internalType": "address",
          "name": "newContract",
          "type": "address"
        }
      ],
      "stateMutability": "nonpayable",
      "type": "function"
    }
  ],
  "bytecode": "0x608060405234801561001057600080fd5b506105af806100206000396000f3fe608060405234801561001057600080fd5b50600436106100365760003560e01c80634847be6f1461003b5780634c8c9ea11461006b575b600080fd5b61005560048036038101906100509190610305565b61009b565b60405161006291906103a6565b60405180910390f35b610085600480360381019061008091906102a9565b610156565b60405161009291906103a6565b60405180910390f35b60008183518460200186f59050600073ffffffffffffffffffffffffffffffffffffffff168173ffffffffffffffffffffffffffffffffffffffff161415610118576040517f08c379a000000000000000000000000000000000000000000000000000000000815260040161010f906103c1565b60405180910390fd5b7f4db17dd5e4732fb6da34a148104a592783ca119a1e7bb8829eba6cbadef0b5118160405161014791906103a6565b60405180910390a19392505050565b600081516020830184f09050600073ffffffffffffffffffffffffffffffffffffffff168173ffffffffffffffffffffffffffffffffffffffff1614156101d2576040517f08c379a00000000000000000000000000000000000000000000000000000000081526004016101c9906103c1565b60405180910390fd5b7f4db17dd5e4732fb6da34a148104a592783ca119a1e7bb8829eba6cbadef0b5118160405161020191906103a6565b60405180910390a192915050565b600061022261021d84610406565b6103e1565b90508281526020810184848401111561023e5761023d610502565b5b61024984828561048e565b509392505050565b6000813590506102608161054b565b92915050565b600082601f83011261027b5761027a6104fd565b5b813561028b84826020860161020f565b91505092915050565b6000813590506102a381610562565b92915050565b600080604083850312156102c0576102bf61050c565b5b60006102ce85828601610294565b925050602083013567ffffffffffffffff8111156102ef576102ee610507565b5b6102fb85828601610266565b9150509250929050565b60008060006060848603121561031e5761031d61050c565b5b600061032c86828701610294565b935050602084013567ffffffffffffffff81111561034d5761034c610507565b5b61035986828701610266565b925050604061036a86828701610251565b9150509250925092565b61037d81610448565b82525050565b6000610390601983610437565b915061039b82610522565b602082019050919050565b60006020820190506103bb6000830184610374565b92915050565b600060208201905081810360008301526103da81610383565b9050919050565b60006103eb6103fc565b90506103f7828261049d565b919050565b6000604051905090565b600067ffffffffffffffff821115610421576104206104ce565b5b61042a82610511565b9050602081019050919050565b600082825260208201905092915050565b600061045382610464565b9050919050565b6000819050919050565b600073ffffffffffffffffffffffffffffffffffffffff82169050919050565b6000819050919050565b82818337600083830152505050565b6104a682610511565b810181811067ffffffffffffffff821117156104c5576104c46104ce565b5b80604052505050565b7f4e487b7100000000000000000000000000000000000000000000000000000000600052604160045260246000fd5b600080fd5b600080fd5b600080fd5b600080fd5b6000601f19601f8301169050919050565b7f436f756c64206e6f74206465706c6f7920636f6e747261637400000000000000600082015250565b6105548161045a565b811461055f57600080fd5b50565b61056b81610484565b811461057657600080fd5b5056fea264697066735822122077507ab6dfd550d4f0cfb860e369a29b6d1f8ae90c528c9c8fb8f49e06393d7f64736f6c63430008070033",
  "linkReferences": {},
  "deployedLinkReferences": {}
}