{
  "_format": "hh-sol-artifact-1",
  "contractName": "DebugTransactionGuard",
  "sourceName": "contracts/examples/guards/DebugTransactionGuard.sol",
  "abi": [
    {
      "anonymous": false,
      "inputs": [
        {
          "indexed": true,
          "internalType": "address",
          "name": "safe",
          "type": "address"
        },
        {
          "indexed": true,
          "internalType": "bytes32",
          "name": "txHash",
          "type": "bytes32"
        },
        {
          "indexed": true,
          "internalType": "uint256",
          "name": "nonce",
          "type": "uint256"
        },
        {
          "indexed": false,
          "internalType": "bool",
          "name": "success",
          "type": "bool"
        }
      ],
      "name": "GasUsage",
      "type": "event"
    },
    {
      "anonymous": false,
      "inputs": [
        {
          "indexed": true,
          "internalType": "address",
          "name": "safe",
          "type": "address"
        },
        {
          "indexed": true,
          "internalType": "bytes32",
          "name": "txHash",
          "type": "bytes32"
        },
        {
          "indexed": false,
          "internalType": "address",
          "name": "to",
          "type": "address"
        },
        {
          "indexed": false,
          "internalType": "uint256",
          "name": "value",
          "type": "uint256"
        },
        {
          "indexed": false,
          "internalType": "bytes",
          "name": "data",
          "type": "bytes"
        },
        {
          "indexed": false,
          "internalType": "enum Enum.Operation",
          "name": "operation",
          "type": "uint8"
        },
        {
          "indexed": false,
          "internalType": "uint256",
          "name": "safeTxGas",
          "type": "uint256"
        },
        {
          "indexed": false,
          "internalType": "bool",
          "name": "usesRefund",
          "type": "bool"
        },
        {
          "indexed": false,
          "internalType": "uint256",
          "name": "nonce",
          "type": "uint256"
        }
      ],
      "name": "TransactionDetails",
      "type": "event"
    },
    {
      "stateMutability": "nonpayable",
      "type": "fallback"
    },
    {
      "inputs": [
        {
          "internalType": "bytes32",
          "name": "txHash",
          "type": "bytes32"
        },
        {
          "internalType": "bool",
          "name": "success",
          "type": "bool"
        }
      ],
      "name": "checkAfterExecution",
      "outputs": [],
      "stateMutability": "nonpayable",
      "type": "function"
    },
    {
      "inputs": [
        {
          "internalType": "address",
          "name": "to",
          "type": "address"
        },
        {
          "internalType": "uint256",
          "name": "value",
          "type": "uint256"
        },
        {
          "internalType": "bytes",
          "name": "data",
          "type": "bytes"
        },
        {
          "internalType": "enum Enum.Operation",
          "name": "operation",
          "type": "uint8"
        },
        {
          "internalType": "uint256",
          "name": "safeTxGas",
          "type": "uint256"
        },
        {
          "internalType": "uint256",
          "name": "baseGas",
          "type": "uint256"
        },
        {
          "internalType": "uint256",
          "name": "gasPrice",
          "type": "uint256"
        },
        {
          "internalType": "address",
          "name": "gasToken",
          "type": "address"
        },
        {
          "internalType": "address payable",
          "name": "refundReceiver",
          "type": "address"
        },
        {
          "internalType": "bytes",
          "name": "",
          "type": "bytes"
        },
        {
          "internalType": "address",
          "name": "",
          "type": "address"
        }
      ],
      "name": "checkTransaction",
      "outputs": [],
      "stateMutability": "nonpayable",
      "type": "function"
    },
    {
      "inputs": [
        {
          "internalType": "bytes4",
          "name": "interfaceId",
          "type": "bytes4"
        }
      ],
      "name": "supportsInterface",
      "outputs": [
        {
          "internalType": "bool",
          "name": "",
          "type": "bool"
        }
      ],
      "stateMutability": "view",
      "type": "function"
    },
    {
      "inputs": [
        {
          "internalType": "bytes32",
          "name": "",
          "type": "bytes32"
        }
      ],
      "name": "txNonces",
      "outputs": [
        {
          "internalType": "uint256",
          "name": "",
          "type": "uint256"
        }
      ],
      "stateMutability": "view",
      "type": "function"
    }
  ],
  "bytecode": "0x608060405234801561001057600080fd5b50610d8a806100206000396000f3fe608060405234801561001057600080fd5b50600436106100505760003560e01c806301ffc9a71461005357806375f0bb5214610083578063932713681461009f578063ddbdba63146100bb57610051565b5b005b61006d60048036038101906100689190610746565b6100eb565b60405161007a9190610960565b60405180910390f35b61009d60048036038101906100989190610580565b6101bd565b005b6100b960048036038101906100b49190610706565b610373565b005b6100d560048036038101906100d091906106ac565b61043b565b6040516100e2919061099b565b60405180910390f35b60007fe6d7a83a000000000000000000000000000000000000000000000000000000007bffffffffffffffffffffffffffffffffffffffffffffffffffffffff1916827bffffffffffffffffffffffffffffffffffffffffffffffffffffffff191614806101b657507f01ffc9a7000000000000000000000000000000000000000000000000000000007bffffffffffffffffffffffffffffffffffffffffffffffffffffffff1916827bffffffffffffffffffffffffffffffffffffffffffffffffffffffff1916145b9050919050565b600080600033905060018173ffffffffffffffffffffffffffffffffffffffff1663affed0e06040518163ffffffff1660e01b815260040160206040518083038186803b15801561020d57600080fd5b505afa158015610221573d6000803e3d6000fd5b505050506040513d601f19601f820116820180604052508101906102459190610773565b61024f9190610a39565b92508073ffffffffffffffffffffffffffffffffffffffff1663d8d11f788f8f8f8f8f8f8f8f8f8d6040518b63ffffffff1660e01b815260040161029c9a999897969594939291906108bd565b60206040518083038186803b1580156102b457600080fd5b505afa1580156102c8573d6000803e3d6000fd5b505050506040513d601f19601f820116820180604052508101906102ec91906106d9565b915050803373ffffffffffffffffffffffffffffffffffffffff167f1b68334da83afaffd8348d6c85c5146d8e7de31a6c034d2d522be12d615c4f7b8f8f8f8f8f60008f118a6040516103459796959493929190610847565b60405180910390a3816000808381526020019081526020016000208190555050505050505050505050505050565b600080600084815260200190815260200160002054905060008114156103ce576040517f08c379a00000000000000000000000000000000000000000000000000000000081526004016103c59061097b565b60405180910390fd5b60008060008581526020019081526020016000208190555080833373ffffffffffffffffffffffffffffffffffffffff167f0dcc0fb56a30b6fe6b188f45b47369bc7f3c928a9748e245a79fc3f54ddd05688560405161042e9190610960565b60405180910390a4505050565b60006020528060005260406000206000915090505481565b6000610466610461846109db565b6109b6565b90508281526020810184848401111561048257610481610c5d565b5b61048d848285610b58565b509392505050565b6000813590506104a481610cba565b92915050565b6000813590506104b981610cd1565b92915050565b6000813590506104ce81610ce8565b92915050565b6000813590506104e381610cff565b92915050565b6000815190506104f881610cff565b92915050565b60008135905061050d81610d16565b92915050565b600082601f83011261052857610527610c58565b5b8135610538848260208601610453565b91505092915050565b60008135905061055081610d2d565b92915050565b60008135905061056581610d3d565b92915050565b60008151905061057a81610d3d565b92915050565b60008060008060008060008060008060006101608c8e0312156105a6576105a5610c67565b5b60006105b48e828f01610495565b9b505060206105c58e828f01610556565b9a505060408c013567ffffffffffffffff8111156105e6576105e5610c62565b5b6105f28e828f01610513565b99505060606106038e828f01610541565b98505060806106148e828f01610556565b97505060a06106258e828f01610556565b96505060c06106368e828f01610556565b95505060e06106478e828f01610495565b9450506101006106598e828f016104aa565b9350506101208c013567ffffffffffffffff81111561067b5761067a610c62565b5b6106878e828f01610513565b9250506101406106998e828f01610495565b9150509295989b509295989b9093969950565b6000602082840312156106c2576106c1610c67565b5b60006106d0848285016104d4565b91505092915050565b6000602082840312156106ef576106ee610c67565b5b60006106fd848285016104e9565b91505092915050565b6000806040838503121561071d5761071c610c67565b5b600061072b858286016104d4565b925050602061073c858286016104bf565b9150509250929050565b60006020828403121561075c5761075b610c67565b5b600061076a848285016104fe565b91505092915050565b60006020828403121561078957610788610c67565b5b60006107978482850161056b565b91505092915050565b6107a981610b10565b82525050565b6107b881610a6d565b82525050565b6107c781610a91565b82525050565b60006107d882610a0c565b6107e28185610a17565b93506107f2818560208601610b67565b6107fb81610c6c565b840191505092915050565b61080f81610b22565b82525050565b6000610822601383610a28565b915061082d82610c7d565b602082019050919050565b61084181610b06565b82525050565b600060e08201905061085c600083018a6107af565b6108696020830189610838565b818103604083015261087b81886107cd565b905061088a6060830187610806565b6108976080830186610838565b6108a460a08301856107be565b6108b160c0830184610838565b98975050505050505050565b6000610140820190506108d3600083018d6107af565b6108e0602083018c610838565b81810360408301526108f2818b6107cd565b9050610901606083018a610806565b61090e6080830189610838565b61091b60a0830188610838565b61092860c0830187610838565b61093560e08301866107af565b6109436101008301856107a0565b610951610120830184610838565b9b9a5050505050505050505050565b600060208201905061097560008301846107be565b92915050565b6000602082019050818103600083015261099481610815565b9050919050565b60006020820190506109b06000830184610838565b92915050565b60006109c06109d1565b90506109cc8282610b9a565b919050565b6000604051905090565b600067ffffffffffffffff8211156109f6576109f5610c29565b5b6109ff82610c6c565b9050602081019050919050565b600081519050919050565b600082825260208201905092915050565b600082825260208201905092915050565b6000610a4482610b06565b9150610a4f83610b06565b925082821015610a6257610a61610bcb565b5b828203905092915050565b6000610a7882610ae6565b9050919050565b6000610a8a82610ae6565b9050919050565b60008115159050919050565b6000819050919050565b60007fffffffff0000000000000000000000000000000000000000000000000000000082169050919050565b6000819050610ae182610ca6565b919050565b600073ffffffffffffffffffffffffffffffffffffffff82169050919050565b6000819050919050565b6000610b1b82610b34565b9050919050565b6000610b2d82610ad3565b9050919050565b6000610b3f82610b46565b9050919050565b6000610b5182610ae6565b9050919050565b82818337600083830152505050565b60005b83811015610b85578082015181840152602081019050610b6a565b83811115610b94576000848401525b50505050565b610ba382610c6c565b810181811067ffffffffffffffff82111715610bc257610bc1610c29565b5b80604052505050565b7f4e487b7100000000000000000000000000000000000000000000000000000000600052601160045260246000fd5b7f4e487b7100000000000000000000000000000000000000000000000000000000600052602160045260246000fd5b7f4e487b7100000000000000000000000000000000000000000000000000000000600052604160045260246000fd5b600080fd5b600080fd5b600080fd5b600080fd5b6000601f19601f8301169050919050565b7f436f756c64206e6f7420676574206e6f6e636500000000000000000000000000600082015250565b60028110610cb757610cb6610bfa565b5b50565b610cc381610a6d565b8114610cce57600080fd5b50565b610cda81610a7f565b8114610ce557600080fd5b50565b610cf181610a91565b8114610cfc57600080fd5b50565b610d0881610a9d565b8114610d1357600080fd5b50565b610d1f81610aa7565b8114610d2a57600080fd5b50565b60028110610d3a57600080fd5b50565b610d4681610b06565b8114610d5157600080fd5b5056fea2646970667358221220357f4fd798f576c8a432340ff301f3024bb07383b9582ad50caf53e5a212342064736f6c63430008070033",
  "linkReferences": {},
  "deployedLinkReferences": {}
}