{
  "_format": "hh-sol-artifact-1",
  "contractName": "DelegateCallTransactionGuard",
  "sourceName": "contracts/examples/guards/DelegateCallTransactionGuard.sol",
  "abi": [
    {
      "inputs": [
        {
          "internalType": "address",
          "name": "target",
          "type": "address"
        }
      ],
      "stateMutability": "nonpayable",
      "type": "constructor"
    },
    {
      "stateMutability": "nonpayable",
      "type": "fallback"
    },
    {
      "inputs": [],
      "name": "allowedTarget",
      "outputs": [
        {
          "internalType": "address",
          "name": "",
          "type": "address"
        }
      ],
      "stateMutability": "view",
      "type": "function"
    },
    {
      "inputs": [
        {
          "internalType": "bytes32",
          "name": "",
          "type": "bytes32"
        },
        {
          "internalType": "bool",
          "name": "",
          "type": "bool"
        }
      ],
      "name": "checkAfterExecution",
      "outputs": [],
      "stateMutability": "view",
      "type": "function"
    },
    {
      "inputs": [
        {
          "internalType": "address",
          "name": "to",
          "type": "address"
        },
        {
          "internalType": "uint256",
          "name": "",
          "type": "uint256"
        },
        {
          "internalType": "bytes",
          "name": "",
          "type": "bytes"
        },
        {
          "internalType": "enum Enum.Operation",
          "name": "operation",
          "type": "uint8"
        },
        {
          "internalType": "uint256",
          "name": "",
          "type": "uint256"
        },
        {
          "internalType": "uint256",
          "name": "",
          "type": "uint256"
        },
        {
          "internalType": "uint256",
          "name": "",
          "type": "uint256"
        },
        {
          "internalType": "address",
          "name": "",
          "type": "address"
        },
        {
          "internalType": "address payable",
          "name": "",
          "type": "address"
        },
        {
          "internalType": "bytes",
          "name": "",
          "type": "bytes"
        },
        {
          "internalType": "address",
          "name": "",
          "type": "address"
        }
      ],
      "name": "checkTransaction",
      "outputs": [],
      "stateMutability": "view",
      "type": "function"
    },
    {
      "inputs": [
        {
          "internalType": "bytes4",
          "name": "interfaceId",
          "type": "bytes4"
        }
      ],
      "name": "supportsInterface",
      "outputs": [
        {
          "internalType": "bool",
          "name": "",
          "type": "bool"
        }
      ],
      "stateMutability": "view",
      "type": "function"
    }
  ],
  "bytecode": "0x60a060405234801561001057600080fd5b506040516109a73803806109a783398181016040528101906100329190610084565b8073ffffffffffffffffffffffffffffffffffffffff1660808173ffffffffffffffffffffffffffffffffffffffff1660601b81525050506100ff565b60008151905061007e816100e8565b92915050565b60006020828403121561009a576100996100e3565b5b60006100a88482850161006f565b91505092915050565b60006100bc826100c3565b9050919050565b600073ffffffffffffffffffffffffffffffffffffffff82169050919050565b600080fd5b6100f1816100b1565b81146100fc57600080fd5b50565b60805160601c610883610124600039600081816101ad01526101ff01526108836000f3fe608060405234801561001057600080fd5b50600436106100505760003560e01c806301ffc9a71461005357806373a8c6821461008357806375f0bb52146100a157806393271368146100bd57610051565b5b005b61006d6004803603810190610068919061050c565b6100d9565b60405161007a9190610595565b60405180910390f35b61008b6101ab565b604051610098919061057a565b60405180910390f35b6100bb60048036038101906100b691906103a0565b6101cf565b005b6100d760048036038101906100d291906104cc565b610299565b005b60007fe6d7a83a000000000000000000000000000000000000000000000000000000007bffffffffffffffffffffffffffffffffffffffffffffffffffffffff1916827bffffffffffffffffffffffffffffffffffffffffffffffffffffffff191614806101a457507f01ffc9a7000000000000000000000000000000000000000000000000000000007bffffffffffffffffffffffffffffffffffffffffffffffffffffffff1916827bffffffffffffffffffffffffffffffffffffffffffffffffffffffff1916145b9050919050565b7f000000000000000000000000000000000000000000000000000000000000000081565b6001808111156101e2576101e1610707565b5b8860018111156101f5576101f4610707565b5b14158061024d57507f000000000000000000000000000000000000000000000000000000000000000073ffffffffffffffffffffffffffffffffffffffff168b73ffffffffffffffffffffffffffffffffffffffff16145b61028c576040517f08c379a0000000000000000000000000000000000000000000000000000000008152600401610283906105b0565b60405180910390fd5b5050505050505050505050565b5050565b60006102b06102ab846105f5565b6105d0565b9050828152602081018484840111156102cc576102cb61076a565b5b6102d78482856106c7565b509392505050565b6000813590506102ee816107b3565b92915050565b600081359050610303816107ca565b92915050565b600081359050610318816107e1565b92915050565b60008135905061032d816107f8565b92915050565b6000813590506103428161080f565b92915050565b600082601f83011261035d5761035c610765565b5b813561036d84826020860161029d565b91505092915050565b60008135905061038581610826565b92915050565b60008135905061039a81610836565b92915050565b60008060008060008060008060008060006101608c8e0312156103c6576103c5610774565b5b60006103d48e828f016102df565b9b505060206103e58e828f0161038b565b9a505060408c013567ffffffffffffffff8111156104065761040561076f565b5b6104128e828f01610348565b99505060606104238e828f01610376565b98505060806104348e828f0161038b565b97505060a06104458e828f0161038b565b96505060c06104568e828f0161038b565b95505060e06104678e828f016102df565b9450506101006104798e828f016102f4565b9350506101208c013567ffffffffffffffff81111561049b5761049a61076f565b5b6104a78e828f01610348565b9250506101406104b98e828f016102df565b9150509295989b509295989b9093969950565b600080604083850312156104e3576104e2610774565b5b60006104f18582860161031e565b925050602061050285828601610309565b9150509250929050565b60006020828403121561052257610521610774565b5b600061053084828501610333565b91505092915050565b61054281610637565b82525050565b6105518161065b565b82525050565b6000610564601783610626565b915061056f8261078a565b602082019050919050565b600060208201905061058f6000830184610539565b92915050565b60006020820190506105aa6000830184610548565b92915050565b600060208201905081810360008301526105c981610557565b9050919050565b60006105da6105eb565b90506105e682826106d6565b919050565b6000604051905090565b600067ffffffffffffffff8211156106105761060f610736565b5b61061982610779565b9050602081019050919050565b600082825260208201905092915050565b60006106428261069d565b9050919050565b60006106548261069d565b9050919050565b60008115159050919050565b6000819050919050565b60007fffffffff0000000000000000000000000000000000000000000000000000000082169050919050565b600073ffffffffffffffffffffffffffffffffffffffff82169050919050565b6000819050919050565b82818337600083830152505050565b6106df82610779565b810181811067ffffffffffffffff821117156106fe576106fd610736565b5b80604052505050565b7f4e487b7100000000000000000000000000000000000000000000000000000000600052602160045260246000fd5b7f4e487b7100000000000000000000000000000000000000000000000000000000600052604160045260246000fd5b600080fd5b600080fd5b600080fd5b600080fd5b6000601f19601f8301169050919050565b7f546869732063616c6c2069732072657374726963746564000000000000000000600082015250565b6107bc81610637565b81146107c757600080fd5b50565b6107d381610649565b81146107de57600080fd5b50565b6107ea8161065b565b81146107f557600080fd5b50565b61080181610667565b811461080c57600080fd5b50565b61081881610671565b811461082357600080fd5b50565b6002811061083357600080fd5b50565b61083f816106bd565b811461084a57600080fd5b5056fea264697066735822122022c86fcca678d2f205c18a82ec60c602b3ca5ff6a48b4b105fa0fbce7022901264736f6c63430008070033",
  "linkReferences": {},
  "deployedLinkReferences": {}
}