{
  "_format": "hh-sol-artifact-1",
  "contractName": "Migration",
  "sourceName": "contracts/examples/libraries/Migrate_1_3_0_to_1_2_0.sol",
  "abi": [
    {
      "inputs": [
        {
          "internalType": "address",
          "name": "targetSingleton",
          "type": "address"
        }
      ],
      "stateMutability": "nonpayable",
      "type": "constructor"
    },
    {
      "anonymous": false,
      "inputs": [
        {
          "indexed": false,
          "internalType": "address",
          "name": "singleton",
          "type": "address"
        }
      ],
      "name": "ChangedMasterCopy",
      "type": "event"
    },
    {
      "inputs": [],
      "name": "migrate",
      "outputs": [],
      "stateMutability": "nonpayable",
      "type": "function"
    },
    {
      "inputs": [],
      "name": "migrationSingleton",
      "outputs": [
        {
          "internalType": "address",
          "name": "",
          "type": "address"
        }
      ],
      "stateMutability": "view",
      "type": "function"
    },
    {
      "inputs": [],
      "name": "safe120Singleton",
      "outputs": [
        {
          "internalType": "address",
          "name": "",
          "type": "address"
        }
      ],
      "stateMutability": "view",
      "type": "function"
    }
  ],
  "bytecode": "0x60c060405234801561001057600080fd5b506040516106a93803806106a98339818101604052810190610032919061012b565b600073ffffffffffffffffffffffffffffffffffffffff168173ffffffffffffffffffffffffffffffffffffffff1614156100a2576040517f08c379a00000000000000000000000000000000000000000000000000000000081526004016100999061017b565b60405180910390fd5b8073ffffffffffffffffffffffffffffffffffffffff1660a08173ffffffffffffffffffffffffffffffffffffffff1660601b815250503073ffffffffffffffffffffffffffffffffffffffff1660808173ffffffffffffffffffffffffffffffffffffffff1660601b8152505050610249565b60008151905061012581610232565b92915050565b600060208284031215610141576101406101de565b5b600061014f84828501610116565b91505092915050565b600061016560228361019b565b9150610170826101e3565b604082019050919050565b6000602082019050818103600083015261019481610158565b9050919050565b600082825260208201905092915050565b60006101b7826101be565b9050919050565b600073ffffffffffffffffffffffffffffffffffffffff82169050919050565b600080fd5b7f496e76616c69642073696e676c65746f6e20616464726573732070726f76696460008201527f6564000000000000000000000000000000000000000000000000000000000000602082015250565b61023b816101ac565b811461024657600080fd5b50565b60805160601c60a05160601c61042a61027f6000396000818160b20152610165015260008181608e015260d6015261042a6000f3fe608060405234801561001057600080fd5b50600436106100415760003560e01c80632e7731851461004657806389f54308146100645780638fd3ab8014610082575b600080fd5b61004e61008c565b60405161005b91906102be565b60405180910390f35b61006c6100b0565b60405161007991906102be565b60405180910390f35b61008a6100d4565b005b7f000000000000000000000000000000000000000000000000000000000000000081565b7f000000000000000000000000000000000000000000000000000000000000000081565b7f000000000000000000000000000000000000000000000000000000000000000073ffffffffffffffffffffffffffffffffffffffff163073ffffffffffffffffffffffffffffffffffffffff161415610163576040517f08c379a000000000000000000000000000000000000000000000000000000000815260040161015a90610302565b60405180910390fd5b7f00000000000000000000000000000000000000000000000000000000000000006000806101000a81548173ffffffffffffffffffffffffffffffffffffffff021916908373ffffffffffffffffffffffffffffffffffffffff1602179055507f035aff83d86937d35b32e04f0ddc6ff469290eef2f1b692d8a815c89404d474960001b306040516020016101f99291906102d9565b604051602081830303815290604052805190602001206006819055507f75e41bc35ff1bf14d81d1d2f649c0084a0f974f9289c803ec9898eeec4c8d0b860008054906101000a900473ffffffffffffffffffffffffffffffffffffffff1660405161026491906102be565b60405180910390a1565b61027781610333565b82525050565b61028681610345565b82525050565b6102958161036f565b82525050565b60006102a8603083610322565b91506102b3826103a5565b604082019050919050565b60006020820190506102d3600083018461026e565b92915050565b60006040820190506102ee600083018561027d565b6102fb602083018461028c565b9392505050565b6000602082019050818103600083015261031b8161029b565b9050919050565b600082825260208201905092915050565b600061033e8261034f565b9050919050565b6000819050919050565b600073ffffffffffffffffffffffffffffffffffffffff82169050919050565b600061037a82610381565b9050919050565b600061038c82610393565b9050919050565b600061039e8261034f565b9050919050565b7f4d6967726174696f6e2073686f756c64206f6e6c792062652063616c6c65642060008201527f7669612064656c656761746563616c6c0000000000000000000000000000000060208201525056fea26469706673582212200b4ad0b454e5156f5e5607cf0b636a6d0db44701a69c1ff5f5cf371a885037fc64736f6c63430008070033",
  "linkReferences": {},
  "deployedLinkReferences": {}
}